1DELFORYLNC524AAL000000000000001STC524A                20150128                  8                                      
2Y108105530M1020150130SHG3310001ND21212590A-KN300-H3  SWITCHBOXOBU_SWBPB6**   12    24   2    LNN                       
2Y108105510M1020150128SHG3310001ND21212590A-KN300-H3  SWITCHBOXOBU_SWBPB6**   12    24   2    LNN                       
2Y108105520M1020150129SHG3310001ND21212590A-KN300-H3  SWITCHBOXOBU_SWBPB6**   12    48   4    LNN                       
2Y108109790A3120150129SHG3410001C28   24012-KN103-H3  HARN-FRONTASSY BPB6**    2    18   9    LNN                       
2Y108109760M1020150129SHG3310001NJ052224080-SN100-H3  HARN-BATTERY-ASBPB3**   32    64   2    LNN                       
2Y108109770M1020150129SHG3310001NXC41124012-KN108-H3  HARN-FRONT     BPB6**    2    22  11    LNN                       
2Y108109780M1020150129SHG3310001NXC41124012-KN100-H3  HARN-FRONTASSY BPB6**    2    22  11    LNN                       
2Y108109750M1020150129SHG3310001NC173228360-SN100-H3  WIRE-BONDING_REBPB3**  100   100   1    LNN                       
